{"abi":[{"type":"function","name":"allCoprime","inputs":[{"name":"mask","type":"uint16","internalType":"uint16"}],"outputs":[{"name":"","type":"bool","internalType":"bool"}],"stateMutability":"pure"},{"type":"function","name":"computeNibbleMult","inputs":[{"name":"h","type":"bytes32","internalType":"bytes32"}],"outputs":[{"name":"mult","type":"uint8[16]","internalType":"uint8[16]"}],"stateMutability":"pure"},{"type":"function","name":"countPicksInZone","inputs":[{"name":"mask","type":"uint16","internalType":"uint16"},{"name":"zone","type":"uint8","internalType":"uint8"}],"outputs":[{"name":"","type":"uint8","internalType":"uint8"}],"stateMutability":"pure"},{"type":"function","name":"eyeBase","inputs":[{"name":"order","type":"uint8","internalType":"uint8"}],"outputs":[{"name":"","type":"uint8","internalType":"uint8"}],"stateMutability":"pure"},{"type":"function","name":"eyeMult","inputs":[{"name":"order","type":"uint8","internalType":"uint8"}],"outputs":[{"name":"","type":"uint8","internalType":"uint8"}],"stateMutability":"pure"},{"type":"function","name":"eyeMultDowngrade","inputs":[{"name":"order","type":"uint8","internalType":"uint8"}],"outputs":[{"name":"","type":"uint8","internalType":"uint8"}],"stateMutability":"pure"},{"type":"function","name":"forfeitHighestPick","inputs":[{"name":"mask","type":"uint16","internalType":"uint16"},{"name":"nibbleMult","type":"uint8[16]","internalType":"uint8[16]"}],"outputs":[{"name":"","type":"uint16","internalType":"uint16"}],"stateMutability":"pure"},{"type":"function","name":"forfeitLowestPicks","inputs":[{"name":"mask","type":"uint16","internalType":"uint16"},{"name":"nibbleMult","type":"uint8[16]","internalType":"uint8[16]"},{"name":"forfeitCount","type":"uint8","internalType":"uint8"}],"outputs":[{"name":"","type":"uint16","internalType":"uint16"}],"stateMutability":"pure"},{"type":"function","name":"gcd","inputs":[{"name":"a","type":"uint8","internalType":"uint8"},{"name":"b","type":"uint8","internalType":"uint8"}],"outputs":[{"name":"","type":"uint8","internalType":"uint8"}],"stateMutability":"pure"},{"type":"function","name":"getNibble","inputs":[{"name":"h","type":"bytes32","internalType":"bytes32"},{"name":"pos","type":"uint8","internalType":"uint8"}],"outputs":[{"name":"","type":"uint8","internalType":"uint8"}],"stateMutability":"pure"},{"type":"function","name":"isZoneDistributed","inputs":[{"name":"mask","type":"uint16","internalType":"uint16"}],"outputs":[{"name":"","type":"bool","internalType":"bool"}],"stateMutability":"pure"},{"type":"function","name":"popcount16","inputs":[{"name":"mask","type":"uint16","internalType":"uint16"}],"outputs":[{"name":"cnt","type":"uint8","internalType":"uint8"}],"stateMutability":"pure"},{"type":"function","name":"randomOpponentIdx","inputs":[{"name":"selfIdx","type":"uint16","internalType":"uint16"},{"name":"playerCount","type":"uint16","internalType":"uint16"},{"name":"seed","type":"bytes32","internalType":"bytes32"}],"outputs":[{"name":"","type":"uint16","internalType":"uint16"}],"stateMutability":"pure"},{"type":"function","name":"removeLowestNibble","inputs":[{"name":"mask","type":"uint16","internalType":"uint16"}],"outputs":[{"name":"","type":"uint16","internalType":"uint16"}],"stateMutability":"pure"},{"type":"function","name":"removeLowestNibbleInZone","inputs":[{"name":"mask","type":"uint16","internalType":"uint16"},{"name":"zone","type":"uint8","internalType":"uint8"}],"outputs":[{"name":"","type":"uint16","internalType":"uint16"}],"stateMutability":"pure"},{"type":"function","name":"removePicksInZone","inputs":[{"name":"mask","type":"uint16","internalType":"uint16"},{"name":"zone","type":"uint8","internalType":"uint8"}],"outputs":[{"name":"","type":"uint16","internalType":"uint16"}],"stateMutability":"pure"},{"type":"function","name":"zoneMask","inputs":[{"name":"zone","type":"uint8","internalType":"uint8"}],"outputs":[{"name":"","type":"uint16","internalType":"uint16"}],"stateMutability":"pure"}],"bytecode":{"object":"0x60808060405234601957610acb908161001e823930815050f35b5f80fdfe60806040526004361015610011575f80fd5b5f3560e01c806301a388981461054f5780630a051104146105315780630b26d058146105095780631d352b1d146104e257806326a04e95146104c457806334d6328014610401578063378bbc7e146103d757806361980256146103b957806365c7aeda146103a057806368d2e4c61461036c5780636a1af0d61461034b5780636c443c801461031657806382a95bc1146102f8578063a20336f2146101be578063c0aa7a1514610197578063d4d4ce921461016e5763f56d6a04146100d4575f80fd5b602036600319011261016a5760206100ea610640565b600160ff6100fa600f8416610a13565b16149081610150575b81610135575b8161011a575b506040519015158152f35b6001915061012d61f00060ff9216610a13565b16145f61010f565b9050600160ff610148610f008416610a13565b161490610109565b9050600160ff61016260f08416610a13565b161490610103565b5f80fd5b602036600319011261016a57602061018c610187610688565b610a73565b60ff60405191168152f35b604036600319011261016a57602061018c6101b0610688565b6101b8610698565b90610a5b565b602036600319011261016a576004356102006040516101dd8282610651565b81368237604051926101ef8385610651565b823685375f5b601060ff8216106102bc5750505f5b60ff8116601081101561028d5760ff918183610222600194896106f7565b51168061023f5750610236600a91866106f7565b525b0116610204565b8084036102595750610253600f91866106f7565b52610238565b6002810361026e5750610253601491866106f7565b60030361028157610253601991866106f7565b610253601e91866106f7565b5050604051905f825b601082106102a357505050f35b60208060019260ff865116815201930191019091610296565b60018160ff6102cc819486610953565b16836102ed6102e6826102df858d6106f7565b511661073e565b928a6106f7565b9116905201166101f5565b602036600319011261016a57602061018c610311610640565b610a13565b61022036600319011261016a57602061033f610330610640565b610339366106a8565b9061097d565b61ffff60405191168152f35b604036600319011261016a57602061018c610364610698565b600435610953565b604036600319011261016a57602061ffff610385610640565b610395610390610698565b610927565b191616604051908152f35b602036600319011261016a57602061033f610390610688565b602036600319011261016a57602061033f6103d2610640565b6108e9565b604036600319011261016a57602061018c6103f0610640565b6103fb610390610698565b16610a13565b606036600319011261016a57610415610640565b60243561ffff811680910361016a575f190161ffff811161049c5761ffff604051602081019060443582528260f01b8560f01b1660408201526022815261045d604282610651565b51902091169081156104b0570661ffff90811691168110156104885760209061ffff60405191168152f35b60010161ffff811161049c5760209061033f565b634e487b7160e01b5f52601160045260245ffd5b634e487b7160e01b5f52601260045260245ffd5b602036600319011261016a57602061018c6104dd610688565b6108c7565b604036600319011261016a57602061033f6104fb610640565b610503610698565b9061086a565b602036600319011261016a576020610527610522610640565b610760565b6040519015158152f35b602036600319011261016a57602061018c61054a610688565b61071c565b61024036600319011261016a57610564610640565b61056d366106a8565b610224359160ff831680930361016a57825f925b8160ff85161061059b575b60208361ffff60405191168152f35b909160ff9081935f5b60ff8116601081101561060d5761ffff6001821b851616156106025760ff6105cc82886106f7565b511660ff8616116105e6575b50600160ff915b01166105a4565b6105f791965060ff929450856106f7565b5116918460016105d8565b50600160ff916105df565b5050949360ff9192501660ff81146106395761ffff60ff9281600180941b161916169301169290610581565b509161058c565b6004359061ffff8216820361016a57565b601f909101601f19168101906001600160401b0382119082101761067457604052565b634e487b7160e01b5f52604160045260245ffd5b6004359060ff8216820361016a57565b6024359060ff8216820361016a57565b806043121561016a57604051906106c161020083610651565b81906102241161016a576024905b61022482106106dd57505090565b813560ff8116810361016a578152602091820191016106cf565b9060108110156107085760051b0190565b634e487b7160e01b5f52603260045260245ffd5b60ff16600181146107385760021461073357600590565b600790565b50600a90565b60ff1660ff811461049c5760010190565b9060048110156107085760051b0190565b6040519161076f608084610651565b60803684375f5f5b60ff8116601081108061085d575b156107c657908161ffff60016107a4941b8716166107a9575b5061073e565b610777565b6107bf60ff6107b78661073e565b95168861074f565b525f61079e565b5050600491925060ff1603610858575f915b60ff8316926004841015610850576001840160ff811161049c575b60ff811660048110156108415760ff61082860019282610820816108178c8b61074f565b5116928961074f565b511690610a5b565b16036108395760010160ff166107f3565b505f93505050565b505060010160ff1692506107d8565b506001925050565b5f9150565b50600460ff841610610785565b919061087590610927565b82169161ffff8316156108c3575f5b60ff811660108110156108bc576001901b61ffff818616166108ac575060010160ff16610884565b61ffff9394508391501619161690565b5090925050565b9150565b60ff16600181146108e3576002146108de57600a90565b600c90565b50600f90565b905f5b60ff81166010811015610923576001901b61ffff81851616610914575060010160ff166108ec565b61ffff92939150821619161690565b5050565b60ff5f1991160160ff811161049c5760021b6103fc60fc82169116810361049c57600f61ffff911b1690565b607f8260011c1690602082101561070857901a906001166109775760041c60ff1690565b600f1690565b905f60ff925f5b60ff811660108110156109ed5761ffff6001821b841616156109e25760ff6109ac82876106f7565b511660ff8516106109c6575b50600160ff915b0116610984565b6109d791955060ff929350846106f7565b5116908360016109b8565b50600160ff916109bf565b505092905060ff91501660ff8114610a0f579061ffff600181931b1619161690565b5090565b905f915f5b60ff81166010811015610a5657600161ffff911b831616610a3f575b60010160ff16610a18565b926001610a4d60ff9261073e565b94915050610a34565b505050565b91905b60ff8116908115610923579260ff1606610a5e565b60ff1660018114610a8f57600214610a8a57600c90565b600f90565b5060149056fea2646970667358221220155bed2fff9c0f191a203959dfe168547a8af3afa300aff636bc4cb69508706964736f6c634300081b0033","linkReferences":{}},"methodIdentifiers":{"allCoprime(uint16)":"0b26d058","computeNibbleMult(bytes32)":"a20336f2","countPicksInZone(uint16,uint8)":"378bbc7e","eyeBase(uint8)":"0a051104","eyeMult(uint8)":"d4d4ce92","eyeMultDowngrade(uint8)":"26a04e95","forfeitHighestPick(uint16,uint8[16])":"6c443c80","forfeitLowestPicks(uint16,uint8[16],uint8)":"01a38898","gcd(uint8,uint8)":"c0aa7a15","getNibble(bytes32,uint8)":"6a1af0d6","isZoneDistributed(uint16)":"f56d6a04","popcount16(uint16)":"82a95bc1","randomOpponentIdx(uint16,uint16,bytes32)":"34d63280","removeLowestNibble(uint16)":"61980256","removeLowestNibbleInZone(uint16,uint8)":"1d352b1d","removePicksInZone(uint16,uint8)":"68d2e4c6","zoneMask(uint8)":"65c7aeda"},"id":2}