{"abi":[{"type":"function","name":"verifyProof","inputs":[{"name":"_pA","type":"uint256[2]","internalType":"uint256[2]"},{"name":"_pB","type":"uint256[2][2]","internalType":"uint256[2][2]"},{"name":"_pC","type":"uint256[2]","internalType":"uint256[2]"},{"name":"_pubSignals","type":"uint256[2]","internalType":"uint256[2]"}],"outputs":[{"name":"","type":"bool","internalType":"bool"}],"stateMutability":"view"}],"bytecode":{"object":"0x60808060405234601557610508908161001a8239f35b5f80fdfe60806040526004361015610011575f80fd5b5f3560e01c63f5c9d69e14610024575f80fd5b3461035f5761014036600319011261035f5761003f36610363565b3660c41161035f576020907f30644e72e131a029b85045b68181585d97816a916871ca8d3c208c16d87cfd478261007536610370565b926100f66100823661037e565b6104006040526100f1848235926100988461038d565b0135916100a48361038d565b7f1420b0e6bd322713804e955bc4072c9cb312d02a39cfdc23eaecc4bd6ee579f26080527f19e94abbfb7829c5162c056d5bdba1ae8a52fa06a9d47ed398bdbd2c663cd9bd60a0526103be565b610448565b80356101005201358103066101205260443561014052606435610160526084356101805260a4356101a0527f165836e762ecedfe4279d35aabaf4ccdc05833d31c670ccabc5fac0f38b334f66101c0527f2e958a8acfd0671aeb305a4db774525c1d46b482db40d2dd08f9df6af72ff7436101e0527f2b6323ace64ade9f9b3bf0c03c7df8ae19a342fa9147654f86c1af9947b236a4610200527f1222da1caf4c548ca88ae995e7b1e1557a8134692d0d8237f4c8f8c2f8992c06610220527f1555f24975bb2a8b0505c266ad94586b727ca31948ec8c03269580900657b37d610240527f20a271a0e62bd0e6ef2060fb38c68e7555292ad6e18fdb4d6677759ad176f574610260526080516102805260a0516102a0527f198e9393920d483a7260bfb731fb5d25f1aa493335a9e71297e485b7aef312c26102c0527f1800deef121f1e76426a00665e5c4479674322d4f75edadd46debd5cd992f6ed6102e0527f090689d0585ff075ec9e99ad690c3395bc4b313370b38ef355acdadcd122975b610300527f12c85ea5db8c6deb4aab71808dcb408fe3d1e7690c43d37b4ce6cc0166fa7daa610320528035610340520135610360527f1c7a7b39b4ee5ac55230ae47606ffaadd7f6f730621fe0eb8ad580cb9a2aff24610380527f21b2ed037abdbdf71362e2c797e37c1f742550abf13f6035eab7a11a7050d1206103a0527f248059105d538a92fc0413795efbcf4a5d2721b0a144420b41e12b732927c63b6103c0527f22302592f18dfced582b8160cb8547af45d7f224dbf1ccf0ddb8c1508b65ed736103e05260206101006103008160086107cf195a01fa61010051165f5260205ff35b5f80fd5b9060049160441161035f57565b9060c4916101041161035f57565b90610104916101441161035f57565b7f30644e72e131a029b85045b68181585d2833e84879b9709143e1f593f000000111156103b657565b5f805260205ff35b6040517f019a2193a60b8cfafc5c924d0ce2748f28e9658a39676d552cc30e15a2a6147d81527f1cdfb0186452e553fb711d72a0366b7ce7b5f865e7474abb2e25128bad8b858c60208201526040810191825260408160608160076107cf195a01fa156103b657608080916040938251905260a051606082015260066107cf195a01fa156103b657565b6040517f22a5742e51a41c6829a842befa92281cc90b5c8d135af557953ff0ba52b357f081527f2788f748dcb45b7c69c05e3c281da73eb2a6b6ae7648da3662bd7ca15474bc2f60208201526040810191825260408160608160076107cf195a01fa156103b657608080916040938251905260a051606082015260066107cf195a01fa156103b65756fea2646970667358221220d02600754ab912b6eb05050d1e98eac7f615c34c320176b0065af1d4f22b00e064736f6c634300081b0033","linkReferences":{}},"methodIdentifiers":{"verifyProof(uint256[2],uint256[2][2],uint256[2],uint256[2])":"f5c9d69e"},"id":2}