{"abi":[{"type":"constructor","inputs":[{"name":"_game","type":"address","internalType":"address"}],"stateMutability":"nonpayable"},{"type":"function","name":"game","inputs":[],"outputs":[{"name":"","type":"address","internalType":"address"}],"stateMutability":"view"},{"type":"function","name":"getOpenRounds","inputs":[],"outputs":[{"name":"","type":"uint256[]","internalType":"uint256[]"}],"stateMutability":"view"},{"type":"function","name":"isOpen","inputs":[{"name":"roundId","type":"uint256","internalType":"uint256"}],"outputs":[{"name":"","type":"bool","internalType":"bool"}],"stateMutability":"view"},{"type":"function","name":"owner","inputs":[],"outputs":[{"name":"","type":"address","internalType":"address"}],"stateMutability":"view"},{"type":"function","name":"register","inputs":[{"name":"roundId","type":"uint256","internalType":"uint256"}],"outputs":[],"stateMutability":"nonpayable"},{"type":"function","name":"setGame","inputs":[{"name":"_game","type":"address","internalType":"address"}],"outputs":[],"stateMutability":"nonpayable"},{"type":"function","name":"unregister","inputs":[{"name":"roundId","type":"uint256","internalType":"uint256"}],"outputs":[],"stateMutability":"nonpayable"},{"type":"event","name":"RoundRegistered","inputs":[{"name":"roundId","type":"uint256","indexed":true,"internalType":"uint256"}],"anonymous":false},{"type":"event","name":"RoundUnregistered","inputs":[{"name":"roundId","type":"uint256","indexed":true,"internalType":"uint256"}],"anonymous":false},{"type":"error","name":"AlreadyRegistered","inputs":[]},{"type":"error","name":"NotOwner","inputs":[]},{"type":"error","name":"NotRegistered","inputs":[]},{"type":"error","name":"RoundNotOpen","inputs":[]},{"type":"error","name":"RoundStillOpen","inputs":[]}],"bytecode":{"object":"0x608034607d57601f61065238819003918201601f19168301916001600160401b03831184841017608157808492602094604052833981010312607d57516001600160a01b03811690819003607d57600180546001600160a01b031990811633179091555f80549091169190911790556040516105bc90816100968239f35b5f80fd5b634e487b7160e01b5f52604160045260245ffdfe6080806040526004361015610012575f80fd5b5f3560e01c9081634d6861a6146104875750806368b2de86146103ee578063819912a2146103925780638da5cb5b1461036a578063a02b161e146101e1578063c3fe3e28146101ba5763f207564e14610069575f80fd5b346101b65760203660031901126101b657600435805f52600360205260405f20546101a7575f54604051638c65c81f60e01b8152600481018390529061010090829060249082906001600160a01b03165afa801561019c5760ff915f91610165575b501661015657600254600160401b81101561014257816100f482600161010c940160025561055a565b90919082549060031b91821b915f19901b1916179055565b600254815f52600360205260405f20557fe1cc3b7757f496718c2b201b240c287ebfe13196c1608e1884ea9cab6501f2ff5f80a2005b634e487b7160e01b5f52604160045260245ffd5b63402bc00760e01b5f5260045ffd5b61018791506101003d8111610195575b61017f81836104af565b8101906104e6565b96505050505050505f6100cb565b503d610175565b6040513d5f823e3d90fd5b630ea075bf60e21b5f5260045ffd5b5f80fd5b346101b6575f3660031901126101b6575f546040516001600160a01b039091168152602090f35b346101b65760203660031901126101b657600435805f52600360205260405f2054801561035b575f54604051638c65c81f60e01b8152600481018490529061010090829060249082906001600160a01b03165afa801561019c5760ff915f91610334575b501615610325575f198101818111610311576002545f198101908111610311578082036102de575b50505060025480156102ca575f19016102858161055a565b8154905f199060031b1b19169055600255805f5260036020525f60408120557fa7d730429468f8afbdfc48adb935cd4cc39a84a0780e0dea2ef34d10b5aee4ea5f80a2005b634e487b7160e01b5f52603160045260245ffd5b6100f4916102ee6102fd9261055a565b90549060031b1c92839161055a565b5f52600360205260405f205581808061026d565b634e487b7160e01b5f52601160045260245ffd5b63ffaaffc760e01b5f5260045ffd5b61034d91506101003d81116101955761017f81836104af565b965050505050505084610245565b63aba4733960e01b5f5260045ffd5b346101b6575f3660031901126101b6576001546040516001600160a01b039091168152602090f35b346101b65760203660031901126101b6576004356001600160a01b038116908190036101b6576001546001600160a01b031633036103df575f80546001600160a01b031916919091179055005b6330cd747160e01b5f5260045ffd5b346101b6575f3660031901126101b6576040518060206002549283815201809260025f5260205f20905f5b818110610471575050508161042f9103826104af565b604051918291602083019060208452518091526040830191905f5b818110610458575050500390f35b825184528594506020938401939092019160010161044a565b8254845260209093019260019283019201610419565b346101b65760203660031901126101b6576020906004355f526003825260405f205415158152f35b601f909101601f19168101906001600160401b0382119082101761014257604052565b51906001600160401b03821682036101b657565b9190826101009103126101b657815191610502602082016104d2565b9161050f604083016104d2565b9161051c606082016104d2565b91610529608083016104d2565b9161053660a082016104d2565b9160c082015161ffff811681036101b65760e09092015160ff811681036101b65790565b6002548110156105725760025f5260205f2001905f90565b634e487b7160e01b5f52603260045260245ffdfea2646970667358221220fafba73992891c8657b1547ce9e74dc77e1213a516a86222eb8b2cce73f5535864736f6c634300081b0033","linkReferences":{}},"methodIdentifiers":{"game()":"c3fe3e28","getOpenRounds()":"68b2de86","isOpen(uint256)":"4d6861a6","owner()":"8da5cb5b","register(uint256)":"f207564e","setGame(address)":"819912a2","unregister(uint256)":"a02b161e"},"id":1}