{"abi":[{"type":"constructor","inputs":[{"name":"_revealVerifier","type":"address","internalType":"address"}],"stateMutability":"nonpayable"},{"type":"function","name":"BLOCKHASH_LIMIT","inputs":[],"outputs":[{"name":"","type":"uint256","internalType":"uint256"}],"stateMutability":"view"},{"type":"function","name":"CHOICES_COUNT","inputs":[],"outputs":[{"name":"","type":"uint8","internalType":"uint8"}],"stateMutability":"view"},{"type":"function","name":"COMMIT_WINDOW","inputs":[],"outputs":[{"name":"","type":"uint256","internalType":"uint256"}],"stateMutability":"view"},{"type":"function","name":"EYE_COMMIT_WINDOW","inputs":[],"outputs":[{"name":"","type":"uint256","internalType":"uint256"}],"stateMutability":"view"},{"type":"function","name":"EYE_REVEAL_WINDOW","inputs":[],"outputs":[{"name":"","type":"uint256","internalType":"uint256"}],"stateMutability":"view"},{"type":"function","name":"LOCK_OFFSET","inputs":[],"outputs":[{"name":"","type":"uint256","internalType":"uint256"}],"stateMutability":"view"},{"type":"function","name":"MAX_PLAYERS","inputs":[],"outputs":[{"name":"","type":"uint8","internalType":"uint8"}],"stateMutability":"view"},{"type":"function","name":"MIN_PLAYERS","inputs":[],"outputs":[{"name":"","type":"uint8","internalType":"uint8"}],"stateMutability":"view"},{"type":"function","name":"PERK_A1","inputs":[],"outputs":[{"name":"","type":"uint8","internalType":"uint8"}],"stateMutability":"view"},{"type":"function","name":"PERK_A2","inputs":[],"outputs":[{"name":"","type":"uint8","internalType":"uint8"}],"stateMutability":"view"},{"type":"function","name":"PERK_A3","inputs":[],"outputs":[{"name":"","type":"uint8","internalType":"uint8"}],"stateMutability":"view"},{"type":"function","name":"PERK_A4","inputs":[],"outputs":[{"name":"","type":"uint8","internalType":"uint8"}],"stateMutability":"view"},{"type":"function","name":"PERK_A5","inputs":[],"outputs":[{"name":"","type":"uint8","internalType":"uint8"}],"stateMutability":"view"},{"type":"function","name":"PERK_A6","inputs":[],"outputs":[{"name":"","type":"uint8","internalType":"uint8"}],"stateMutability":"view"},{"type":"function","name":"PERK_B1","inputs":[],"outputs":[{"name":"","type":"uint8","internalType":"uint8"}],"stateMutability":"view"},{"type":"function","name":"PERK_B2","inputs":[],"outputs":[{"name":"","type":"uint8","internalType":"uint8"}],"stateMutability":"view"},{"type":"function","name":"PERK_B3","inputs":[],"outputs":[{"name":"","type":"uint8","internalType":"uint8"}],"stateMutability":"view"},{"type":"function","name":"PERK_B4","inputs":[],"outputs":[{"name":"","type":"uint8","internalType":"uint8"}],"stateMutability":"view"},{"type":"function","name":"PERK_B8","inputs":[],"outputs":[{"name":"","type":"uint8","internalType":"uint8"}],"stateMutability":"view"},{"type":"function","name":"PERK_C1","inputs":[],"outputs":[{"name":"","type":"uint8","internalType":"uint8"}],"stateMutability":"view"},{"type":"function","name":"PERK_C9","inputs":[],"outputs":[{"name":"","type":"uint8","internalType":"uint8"}],"stateMutability":"view"},{"type":"function","name":"PERK_D1","inputs":[],"outputs":[{"name":"","type":"uint8","internalType":"uint8"}],"stateMutability":"view"},{"type":"function","name":"PERK_D2","inputs":[],"outputs":[{"name":"","type":"uint8","internalType":"uint8"}],"stateMutability":"view"},{"type":"function","name":"PERK_D3","inputs":[],"outputs":[{"name":"","type":"uint8","internalType":"uint8"}],"stateMutability":"view"},{"type":"function","name":"PERK_D4","inputs":[],"outputs":[{"name":"","type":"uint8","internalType":"uint8"}],"stateMutability":"view"},{"type":"function","name":"PERK_D5","inputs":[],"outputs":[{"name":"","type":"uint8","internalType":"uint8"}],"stateMutability":"view"},{"type":"function","name":"PERK_E1","inputs":[],"outputs":[{"name":"","type":"uint8","internalType":"uint8"}],"stateMutability":"view"},{"type":"function","name":"PERK_E3","inputs":[],"outputs":[{"name":"","type":"uint8","internalType":"uint8"}],"stateMutability":"view"},{"type":"function","name":"PERK_F1","inputs":[],"outputs":[{"name":"","type":"uint8","internalType":"uint8"}],"stateMutability":"view"},{"type":"function","name":"PERK_F2","inputs":[],"outputs":[{"name":"","type":"uint8","internalType":"uint8"}],"stateMutability":"view"},{"type":"function","name":"PERK_F3","inputs":[],"outputs":[{"name":"","type":"uint8","internalType":"uint8"}],"stateMutability":"view"},{"type":"function","name":"PERK_G1","inputs":[],"outputs":[{"name":"","type":"uint8","internalType":"uint8"}],"stateMutability":"view"},{"type":"function","name":"PERK_G2","inputs":[],"outputs":[{"name":"","type":"uint8","internalType":"uint8"}],"stateMutability":"view"},{"type":"function","name":"PERK_G3","inputs":[],"outputs":[{"name":"","type":"uint8","internalType":"uint8"}],"stateMutability":"view"},{"type":"function","name":"PERK_G4","inputs":[],"outputs":[{"name":"","type":"uint8","internalType":"uint8"}],"stateMutability":"view"},{"type":"function","name":"PERK_G6","inputs":[],"outputs":[{"name":"","type":"uint8","internalType":"uint8"}],"stateMutability":"view"},{"type":"function","name":"REVEAL_WINDOW","inputs":[],"outputs":[{"name":"","type":"uint256","internalType":"uint256"}],"stateMutability":"view"},{"type":"function","name":"cancelRound","inputs":[{"name":"roundId","type":"uint256","internalType":"uint256"}],"outputs":[],"stateMutability":"nonpayable"},{"type":"function","name":"commit","inputs":[{"name":"roundId","type":"uint256","internalType":"uint256"},{"name":"commitHash","type":"uint256","internalType":"uint256"},{"name":"perkId","type":"uint8","internalType":"uint8"}],"outputs":[],"stateMutability":"nonpayable"},{"type":"function","name":"commitB3","inputs":[{"name":"roundId","type":"uint256","internalType":"uint256"},{"name":"nibble","type":"uint8","internalType":"uint8"}],"outputs":[],"stateMutability":"nonpayable"},{"type":"function","name":"commitments","inputs":[{"name":"","type":"uint256","internalType":"uint256"},{"name":"","type":"address","internalType":"address"}],"outputs":[{"name":"commitHash","type":"uint256","internalType":"uint256"},{"name":"eyeCommitHash","type":"bytes32","internalType":"bytes32"},{"name":"pickedMask","type":"uint16","internalType":"uint16"},{"name":"survivingMask","type":"uint16","internalType":"uint16"},{"name":"eyeOrder","type":"uint8","internalType":"uint8"},{"name":"perkId","type":"uint8","internalType":"uint8"},{"name":"declaredOrder","type":"uint8","internalType":"uint8"},{"name":"trapOrder","type":"uint8","internalType":"uint8"},{"name":"trapNibble","type":"uint8","internalType":"uint8"},{"name":"trapZone","type":"uint8","internalType":"uint8"},{"name":"targetPlayer","type":"address","internalType":"address"},{"name":"revealed","type":"bool","internalType":"bool"},{"name":"eyeRevealed","type":"bool","internalType":"bool"},{"name":"score","type":"uint64","internalType":"uint64"}],"stateMutability":"view"},{"type":"function","name":"createRound","inputs":[],"outputs":[{"name":"roundId","type":"uint256","internalType":"uint256"}],"stateMutability":"nonpayable"},{"type":"function","name":"currentRoundId","inputs":[],"outputs":[{"name":"","type":"uint256","internalType":"uint256"}],"stateMutability":"view"},{"type":"function","name":"declareAllIn","inputs":[{"name":"roundId","type":"uint256","internalType":"uint256"},{"name":"guessNibble","type":"uint8","internalType":"uint8"}],"outputs":[],"stateMutability":"nonpayable"},{"type":"function","name":"declareExtraPick","inputs":[{"name":"roundId","type":"uint256","internalType":"uint256"},{"name":"extraNibble","type":"uint8","internalType":"uint8"}],"outputs":[],"stateMutability":"nonpayable"},{"type":"function","name":"expireRound","inputs":[{"name":"roundId","type":"uint256","internalType":"uint256"}],"outputs":[],"stateMutability":"nonpayable"},{"type":"function","name":"eyeCommit","inputs":[{"name":"roundId","type":"uint256","internalType":"uint256"},{"name":"eyeCommitHash","type":"bytes32","internalType":"bytes32"}],"outputs":[],"stateMutability":"nonpayable"},{"type":"function","name":"eyeReveal","inputs":[{"name":"roundId","type":"uint256","internalType":"uint256"},{"name":"order","type":"uint8","internalType":"uint8"},{"name":"salt","type":"bytes32","internalType":"bytes32"}],"outputs":[],"stateMutability":"nonpayable"},{"type":"function","name":"eyeRevealFor","inputs":[{"name":"roundId","type":"uint256","internalType":"uint256"},{"name":"player","type":"address","internalType":"address"},{"name":"order","type":"uint8","internalType":"uint8"},{"name":"salt","type":"bytes32","internalType":"bytes32"}],"outputs":[],"stateMutability":"nonpayable"},{"type":"function","name":"getNibbleMult","inputs":[{"name":"roundId","type":"uint256","internalType":"uint256"}],"outputs":[{"name":"","type":"uint8[16]","internalType":"uint8[16]"}],"stateMutability":"view"},{"type":"function","name":"getOneSurvivingPick","inputs":[{"name":"roundId","type":"uint256","internalType":"uint256"},{"name":"target","type":"address","internalType":"address"}],"outputs":[{"name":"","type":"uint8","internalType":"uint8"}],"stateMutability":"view"},{"type":"function","name":"getOverlappingNibbles","inputs":[{"name":"roundId","type":"uint256","internalType":"uint256"}],"outputs":[{"name":"overlapMask","type":"uint16","internalType":"uint16"}],"stateMutability":"view"},{"type":"function","name":"getPlayerInfo","inputs":[{"name":"roundId","type":"uint256","internalType":"uint256"},{"name":"player","type":"address","internalType":"address"}],"outputs":[{"name":"hasCommitted","type":"bool","internalType":"bool"},{"name":"revealed","type":"bool","internalType":"bool"},{"name":"eyeRevealed","type":"bool","internalType":"bool"},{"name":"eyeOrder","type":"uint8","internalType":"uint8"},{"name":"perkId","type":"uint8","internalType":"uint8"},{"name":"survivingMask","type":"uint16","internalType":"uint16"},{"name":"score","type":"uint64","internalType":"uint64"},{"name":"declaredOrder","type":"uint8","internalType":"uint8"}],"stateMutability":"view"},{"type":"function","name":"getPlayers","inputs":[{"name":"roundId","type":"uint256","internalType":"uint256"}],"outputs":[{"name":"","type":"address[]","internalType":"address[]"}],"stateMutability":"view"},{"type":"function","name":"getRoundInfo","inputs":[{"name":"roundId","type":"uint256","internalType":"uint256"}],"outputs":[{"name":"state","type":"uint8","internalType":"enum HexChain.RoundState"},{"name":"startBlock","type":"uint64","internalType":"uint64"},{"name":"lockBlock","type":"uint64","internalType":"uint64"},{"name":"revealBlock","type":"uint64","internalType":"uint64"},{"name":"eyeLockBlock","type":"uint64","internalType":"uint64"},{"name":"eyeRevealBlock","type":"uint64","internalType":"uint64"},{"name":"playerCount","type":"uint16","internalType":"uint16"},{"name":"revealHash","type":"bytes32","internalType":"bytes32"}],"stateMutability":"view"},{"type":"function","name":"getSurvivingCount","inputs":[{"name":"roundId","type":"uint256","internalType":"uint256"},{"name":"target","type":"address","internalType":"address"}],"outputs":[{"name":"","type":"uint8","internalType":"uint8"}],"stateMutability":"view"},{"type":"function","name":"lockEyeRound","inputs":[{"name":"roundId","type":"uint256","internalType":"uint256"}],"outputs":[],"stateMutability":"nonpayable"},{"type":"function","name":"lockRound","inputs":[{"name":"roundId","type":"uint256","internalType":"uint256"}],"outputs":[],"stateMutability":"nonpayable"},{"type":"function","name":"openEyeGame","inputs":[{"name":"roundId","type":"uint256","internalType":"uint256"}],"outputs":[],"stateMutability":"nonpayable"},{"type":"function","name":"operator","inputs":[],"outputs":[{"name":"","type":"address","internalType":"address"}],"stateMutability":"view"},{"type":"function","name":"revealFor","inputs":[{"name":"roundId","type":"uint256","internalType":"uint256"},{"name":"player","type":"address","internalType":"address"},{"name":"pA","type":"uint256[2]","internalType":"uint256[2]"},{"name":"pB","type":"uint256[2][2]","internalType":"uint256[2][2]"},{"name":"pC","type":"uint256[2]","internalType":"uint256[2]"},{"name":"pubSignals","type":"uint256[2]","internalType":"uint256[2]"}],"outputs":[],"stateMutability":"nonpayable"},{"type":"function","name":"revealVerifier","inputs":[],"outputs":[{"name":"","type":"address","internalType":"contract Groth16Verifier"}],"stateMutability":"view"},{"type":"function","name":"rounds","inputs":[{"name":"","type":"uint256","internalType":"uint256"}],"outputs":[{"name":"revealHash","type":"bytes32","internalType":"bytes32"},{"name":"startBlock","type":"uint64","internalType":"uint64"},{"name":"lockBlock","type":"uint64","internalType":"uint64"},{"name":"revealBlock","type":"uint64","internalType":"uint64"},{"name":"eyeLockBlock","type":"uint64","internalType":"uint64"},{"name":"eyeRevealBlock","type":"uint64","internalType":"uint64"},{"name":"playerCount","type":"uint16","internalType":"uint16"},{"name":"state","type":"uint8","internalType":"enum HexChain.RoundState"}],"stateMutability":"view"},{"type":"function","name":"setTrap","inputs":[{"name":"roundId","type":"uint256","internalType":"uint256"},{"name":"trapNibble","type":"uint8","internalType":"uint8"},{"name":"trapOrder","type":"uint8","internalType":"uint8"}],"outputs":[],"stateMutability":"nonpayable"},{"type":"function","name":"settle","inputs":[{"name":"roundId","type":"uint256","internalType":"uint256"}],"outputs":[],"stateMutability":"nonpayable"},{"type":"function","name":"wasLastInPrevRound","inputs":[{"name":"roundId","type":"uint256","internalType":"uint256"},{"name":"player","type":"address","internalType":"address"}],"outputs":[{"name":"","type":"bool","internalType":"bool"}],"stateMutability":"view"},{"type":"event","name":"Committed","inputs":[{"name":"roundId","type":"uint256","indexed":true,"internalType":"uint256"},{"name":"player","type":"address","indexed":true,"internalType":"address"}],"anonymous":false},{"type":"event","name":"EyeCommitted","inputs":[{"name":"roundId","type":"uint256","indexed":true,"internalType":"uint256"},{"name":"player","type":"address","indexed":true,"internalType":"address"}],"anonymous":false},{"type":"event","name":"EyeGameLocked","inputs":[{"name":"roundId","type":"uint256","indexed":true,"internalType":"uint256"}],"anonymous":false},{"type":"event","name":"EyeGameOpened","inputs":[{"name":"roundId","type":"uint256","indexed":true,"internalType":"uint256"},{"name":"eyeLockBlock","type":"uint64","indexed":false,"internalType":"uint64"}],"anonymous":false},{"type":"event","name":"EyeRevealed","inputs":[{"name":"roundId","type":"uint256","indexed":true,"internalType":"uint256"},{"name":"player","type":"address","indexed":true,"internalType":"address"},{"name":"order","type":"uint8","indexed":false,"internalType":"uint8"}],"anonymous":false},{"type":"event","name":"Revealed","inputs":[{"name":"roundId","type":"uint256","indexed":true,"internalType":"uint256"},{"name":"player","type":"address","indexed":true,"internalType":"address"}],"anonymous":false},{"type":"event","name":"RoundCancelled","inputs":[{"name":"roundId","type":"uint256","indexed":true,"internalType":"uint256"},{"name":"by","type":"address","indexed":true,"internalType":"address"}],"anonymous":false},{"type":"event","name":"RoundCreated","inputs":[{"name":"roundId","type":"uint256","indexed":true,"internalType":"uint256"},{"name":"startBlock","type":"uint256","indexed":false,"internalType":"uint256"},{"name":"lockBlock","type":"uint256","indexed":false,"internalType":"uint256"}],"anonymous":false},{"type":"event","name":"RoundLocked","inputs":[{"name":"roundId","type":"uint256","indexed":true,"internalType":"uint256"},{"name":"revealHash","type":"bytes32","indexed":false,"internalType":"bytes32"}],"anonymous":false},{"type":"event","name":"ScoreBreakdownLogged","inputs":[{"name":"roundId","type":"uint256","indexed":true,"internalType":"uint256"},{"name":"player","type":"address","indexed":true,"internalType":"address"},{"name":"finalMask","type":"uint16","indexed":false,"internalType":"uint16"},{"name":"removedMask","type":"uint16","indexed":false,"internalType":"uint16"},{"name":"basePickSumX10","type":"uint16","indexed":false,"internalType":"uint16"},{"name":"eyeAppliedScoreX100","type":"uint16","indexed":false,"internalType":"uint16"},{"name":"adjustmentX100","type":"int32","indexed":false,"internalType":"int32"},{"name":"effectivePerk","type":"uint8","indexed":false,"internalType":"uint8"},{"name":"eyeSuccess","type":"bool","indexed":false,"internalType":"bool"}],"anonymous":false},{"type":"event","name":"Settled","inputs":[{"name":"roundId","type":"uint256","indexed":true,"internalType":"uint256"},{"name":"top3","type":"address[3]","indexed":false,"internalType":"address[3]"},{"name":"scores","type":"uint64[3]","indexed":false,"internalType":"uint64[3]"}],"anonymous":false},{"type":"error","name":"AlreadyCommitted","inputs":[]},{"type":"error","name":"AlreadyEyeCommitted","inputs":[]},{"type":"error","name":"AlreadyEyeRevealed","inputs":[]},{"type":"error","name":"AlreadyRevealed","inputs":[]},{"type":"error","name":"CommitHashMismatch","inputs":[]},{"type":"error","name":"CommitWindowClosed","inputs":[]},{"type":"error","name":"EyeCommitWindowClosed","inputs":[]},{"type":"error","name":"EyeRevealWindowClosed","inputs":[]},{"type":"error","name":"HashExpired","inputs":[]},{"type":"error","name":"HashNotAvailable","inputs":[]},{"type":"error","name":"InvalidEyeOrder","inputs":[]},{"type":"error","name":"InvalidEyeReveal","inputs":[]},{"type":"error","name":"InvalidTarget","inputs":[]},{"type":"error","name":"InvalidTrap","inputs":[]},{"type":"error","name":"InvalidZKProof","inputs":[]},{"type":"error","name":"MaxPlayersReached","inputs":[]},{"type":"error","name":"NotCommitted","inputs":[]},{"type":"error","name":"NotEnoughPlayers","inputs":[]},{"type":"error","name":"NotOperator","inputs":[]},{"type":"error","name":"NotParticipant","inputs":[]},{"type":"error","name":"NotPerkHolder","inputs":[]},{"type":"error","name":"NothingToSettle","inputs":[]},{"type":"error","name":"RevealWindowClosed","inputs":[]},{"type":"error","name":"RoundNotExpired","inputs":[]},{"type":"error","name":"RoundNotEyeLocked","inputs":[]},{"type":"error","name":"RoundNotEyeOpen","inputs":[]},{"type":"error","name":"RoundNotLocked","inputs":[]},{"type":"error","name":"RoundNotOpen","inputs":[]},{"type":"error","name":"TooEarlyToLock","inputs":[]},{"type":"error","name":"TooEarlyToLockEye","inputs":[]},{"type":"error","name":"TooEarlyToOpenEye","inputs":[]},{"type":"error","name":"TooEarlyToSettle","inputs":[]}],"bytecode":{"object":"0x60c03461008e57601f615c3438819003918201601f19168301916001600160401b038311848410176100925780849260209460405283398101031261008e57516001600160a01b0381169081900361008e573360a052608052604051615b8d90816100a7823960805181818161070a01526150eb015260a0518181816104200152818161443b01526152270152f35b5f80fd5b634e487b7160e01b5f52604160045260245ffdfe6109e06040526004361015610012575f80fd5b5f3560e01c8063053d386c14614be85780630631458014614bcd57806306fe54de14614bb25780630a483b6b1461446a5780630a608be814614b975780630ad73bd714614b7c57806317e931cf146105dc5780631b411fc8146149b85780632020dbed1461499d578063213c541914614982578063292672ea146148e95780632ab4ee54146105dc57806331ec0b241461455f5780633488c913146147605780633ac450b1146147305780633ccd10e9146146895780633e065847146145d05780634126473f146145b557806342f2696f1461459a5780634313c19b14614309578063437517d31461457f5780634405e832146145645780634411b3eb1461455f578063460e20491461446f578063494f13b31461446a578063570ca73514614426578063572669151461440057806363560664146105dc57806364295601146143e5578063767221ed146143ca5780637e07ab091461433f57806380cec2a0146143245780638112b2a31461430957806385f07bbe14613f9157806386887ffb1461426c578063868fdbea14613f965780638723bebd14613f9157806388c3ffb014613f005780638ab4ca8a14613e415780638b37b54a14613e265780638c65c81f14613d885780638df82800146110745780639cbe5efd146110585780639d98032514610f445780639dd5377e14610f29578063a10c152a14610f0e578063a13c8f4f14610ef3578063a3f3fd6914610ed8578063b6d4011514610e6f578063b82f58b914610e54578063c0095e2414610d92578063c243ecb914610c8e578063c3e2b54314610c73578063c758724f14610c58578063cc89f4e514610c3d578063cd8c42a2146107ce578063dc560e7514610785578063dd62bde414610754578063de4ebfa314610739578063df080a35146106f5578063e43b3132146106da578063e90d4c06146105e1578063e97f6a68146105dc578063ed03b5e8146105c1578063f1a4a48b146103f85763f4f7c031146102f0575f80fd5b346103f45760403660031901126103f45760043561030c614cf1565b5f91825260016020908152604080842060028084528286203387529093529320908301549192909160501c60ff1660058110156103e0576103d1576001015460401c6001600160401b031643116103c2578054156103b357600201601960ff825460281c16036103a457600f60ff8316116103955761038d61039392614e31565b90614e97565b005b632e98717b60e21b5f5260045ffd5b631ac4112f60e21b5f5260045ffd5b63205e472d60e21b5f5260045ffd5b6352cc987160e11b5f5260045ffd5b63402bc00760e01b5f5260045ffd5b634e487b7160e01b5f52602160045260245ffd5b5f80fd5b346103f45760803660031901126103f457600435610414614d11565b9061041d614d01565b917f00000000000000000000000000000000000000000000000000000000000000006001600160a01b031633036105b257815f52600160205260405f2092825f52600260205260405f2060018060a01b0383165f52602052600260405f2094015460ff8160501c1660058110156103e0576003036105a35760018060401b0316601e810180911161058f5743116105805760018401549384156103b35760020191825460f81c6105715760ff82169485158015610567575b610558576040516020810190610500816104f26064358886614ff7565b03601f198101835282614dcc565b5190200361054957826105236020935f516020615b385f395f51905f5295614e5d565b80546001600160f81b0316600160f81b1790556040519485526001600160a01b031693a3005b6337c13c5f60e21b5f5260045ffd5b63d33d8c4560e01b5f5260045ffd5b50600386116104d5565b637f1b8f0560e01b5f5260045ffd5b634b9b1bad60e11b5f5260045ffd5b634e487b7160e01b5f52601160045260245ffd5b632d2273cb60e21b5f5260045ffd5b631f0853c160e21b5f5260045ffd5b346103f4575f3660031901126103f457602060405160258152f35b614cbb565b346103f45760403660031901126103f4576105fa614d11565b6004355f52600260205260405f209060018060a01b03165f526020526101c060405f20805490600181015490600281015490600360018060401b039101541691604051938452602084015261ffff8116604084015261ffff8160101c16606084015260ff8160201c16608084015260ff8160281c1660a084015260ff8160301c1660c084015260ff8160381c1660e084015260ff8160401c1661010084015260ff8160481c1661012084015260018060a01b038160501c1661014084015260ff8160f01c16151561016084015260f81c15156101808301526101a0820152f35b346103f4575f3660031901126103f457602060405160098152f35b346103f4575f3660031901126103f4576040517f00000000000000000000000000000000000000000000000000000000000000006001600160a01b03168152602090f35b346103f4575f3660031901126103f457602060405160188152f35b346103f45760403660031901126103f457602061077a610772614d11565b600435615256565b60ff60405191168152f35b346103f4576101803660031901126103f45761079f614d11565b366084116103f45736610104116103f45736610144116103f45736610184116103f45761039390600435615011565b346103f45760203660031901126103f457600435805f52600160205260405f206002810180549160ff8360501c1660058110156103e057600103610c2e576001019160018060401b03835460801c16601e810180911161058f57431115610c1f5760401c61ffff1660018411610b29575b5f9291925b61ffff8116908282101561094b575f86815260036020908152604080832085845282528083205489845260028084528285206001600160a01b03909216855292529091200180549560ff60f088901c161561093a575f90815b61ffff83168781101561091357808714610906575f8b815260026020818152604080842060038352818520958552948252808420546001600160a01b03168452939052919020015460f081901c60ff16156109065761ffff91826001921617935b01169161089d565b5091600161ffff916108fe565b5061ffff9550610930925060019493919798869119161690614e43565b0116929192610844565b9495505061ffff9150600190610930565b855f8685875b61ffff84169082821015610aae575f868152600260208181526040808420600383528185208786528352818520546001600160a01b03168552909152909120018054909490602881901c60ff16600614801590610aa0575b610a8f578061ffff809260101c1619161615610a7f575f5b61ffff811685811015610a695761ffff91816001928714610a63575f8b8152600260208181526040808420600383528185209585529482528084205460a088901b88900316845293905291902001805460f081901c60ff1615610a5c57602760ff8260281c1614610a5c5784818b54161615610a5c5760101c8416908115610a5c57610a4f610a5592615a93565b90614e43565b01166109c1565b5050610a55565b50610a55565b505093509361ffff91506001905b011692610951565b93509361ffff9150600190610a77565b5093509361ffff9150600190610a77565b5060ff8160f01c16156109a9565b85907fa57edf3c0dd38f3c5de2ad8159c685acda638652d8a02eff74ca3c7811bfa55d9060209086610ae8436001600160401b0316614d4f565b91610afc83610af681614d67565b92614def565b8154600162ff000160401b0319166001600160401b0391821617600160511b1790915560405191168152a2005b5f1984018481115f5b8361ffff821610610b455750505061083f565b5f87815260036020908152604080832061ffff851684528252808320548a845260028084528285206001600160a01b03909216808652919093529220018054929084601860ff602887901c1614801590610c11575b8015610c03575b610bf35761058f5761ffff93610bb960019488615299565b610bc8575b50505b0116610b32565b8085808660ff610bdd81849760401c1661553f565b161b169116171684198254161790558980610bbe565b505061ffff925060019150610bc1565b5060ff8560f01c1615610ba1565b5060ff8560401c1615610b9a565b63d4e4fefb60e01b5f5260045ffd5b634e7e4c0b60e01b5f5260045ffd5b346103f4575f3660031901126103f4576020604051600a8152f35b346103f4575f3660031901126103f457602060405160198152f35b346103f4575f3660031901126103f457602060405160068152f35b346103f45760603660031901126103f457600435610caa614cf1565b5f8281526001602090815260408083206002808452828520338652909352922091015490929190605081901c60ff1660058110156103e0576003036105a35760018060401b0316601e810180911161058f5743116105805760018301549283156103b35760020190815460f81c6105715760ff81169384158015610d88575b610558576040516020810190610d46816104f26044358786614ff7565b5190200361054957610d589082614e5d565b80546001600160f81b0316600160f81b17905560405191825233915f516020615b385f395f51905f5290602090a3005b5060038511610d29565b346103f45760203660031901126103f457600435805f526001602052600260405f2001805460ff8160501c1660058110156103e057600203610e45576001600160401b031643811015610e365760fa810180911161058f574311610e2757805460ff60501b1916600360501b1790557f4e07415f3b90edd020be3fc89224bd4ed2b2e06f667e9b27a8779811aa9d55675f80a2005b632a76de2960e21b5f5260045ffd5b631d0fe12360e11b5f5260045ffd5b63a5a181bb60e01b5f5260045ffd5b346103f4575f3660031901126103f4576020604051601b8152f35b346103f45760203660031901126103f45761020080604051610e918282614dcc565b3690376004355f526001602052610eab60405f20546153dd565b604051905f825b60108210610ebf57505050f35b60208060019260ff865116815201930191019091610eb2565b346103f4575f3660031901126103f457602060405160288152f35b346103f4575f3660031901126103f457602060405160238152f35b346103f4575f3660031901126103f4576020604051600e8152f35b346103f4575f3660031901126103f4576020604051601d8152f35b346103f45760603660031901126103f457600435610f60614cf1565b90610f69614d01565b5f91825260016020908152604080842060028084528286203387529093529320908301549192909160501c60ff1660058110156103e0576103d1576001015460401c6001600160401b031643116103c2578054156103b3576002019160ff835460281c1660218114908115908161104c575b506103a45761101e575b50602360ff835460281c1614610ff757005b60ff81168015908115611013575b506105585761039391614e7a565b600391501183611005565b60ff81168015908115611041575b506103955761103b9083614e97565b82610fe5565b60109150118461102c565b60239150141585610fdb565b346103f4575f3660031901126103f45760205f54604051908152f35b346103f45760203660031901126103f4576004355f52600160205260405f206103e05260026103e05101546107e05260ff6107e05160501c1660058110156103e0576003036105a35760018060401b036107e05116601e810180911161058f57431115613d795761ffff6107e05160401c1615613d6a576103e0515461098052611100610980516153dd565b6109a05261111761ffff6107e05160401c166154fc565b610620525f5b61ffff6107e05160401c1661ffff821610613c295761114561ffff6107e05160401c166154fc565b610460525f5f5b61ffff6107e05160401c1661ffff821610613bc8575b50613b3f575b60806106408190526040516109c08190526111839190614dcc565b610640516109c0513690375f5b61ffff6107e05160401c1661ffff821610613abc5760ff60206109c051015116158015613aaa575b806108a05215613a95575b60606107208190526040516109008190526111de9190614dcc565b6107205161090051369037610720516040516108c08190526112009190614dcc565b610720516108c0513690375f5b61ffff6107e05160401c1661ffff8216101561143a576004355f9081526002602081815260408084206003835281852061ffff871686528352818520546001600160a01b03168552909152909120015460f081901c60ff161561142e5761ffff8160101c165f918060f81c6112b6575b509160019161ffff938461129681851661090051615551565b911690526112a98483166108c051615551565b90151590525b011661120d565b600a60ff806112d0818560209897981c166109c05161552e565b51169260281c16036112fe57505061ffff916112f26001926109a051906156c7565b82905b9193509161127d565b909190600181111561141d576113139061553f565b90610940525f610920525b60ff811660ff610920511610611340575b5061ffff91600191610940516112f5565b60ff61096052610960516108e0525f610880525b601060ff610880511610156113dd5761ffff600160ff61088051161b610940511616156113d85760ff61138f8161088051166109a051614f1a565b511660ff6109605116116113b1575b60ff600161088051011661088052611354565b60ff6113c58161088051166109a051614f1a565b511661096052610880516108e05261139e565b61139e565b60ff6108e0511660ff8114611417579061ffff80600160ff941b16196109405116166109405281600161092051011661092052905061131e565b5061132f565b50600191509161ffff9282906112f5565b50600161ffff916112af565b61144d61ffff6107e05160401c166154fc565b610860525f5b61ffff6107e05160401c1661ffff821610156115ad576004355f9081526002602081815260408084206003835281852061ffff8781168752908452828620546001600160a01b03168652925290922001549091600191602881901c60ff166023148015906115a2575b8015611594575b61158e575f5b846107e05160401c168582161015611584578381868093168386161461156b576004355f90815260026020818152604080842060038352818520868916865283528185205460a088901b889003168552909152909120015460f881901c158015611576575b6115705760ff8560381c1660ff8260201c16036115705760281c60ff1660271461156b578161156284831661086051614ef2565b525b01166114c9565b611564565b50611564565b5060ff8160f01c161561152e565b50505b0116611453565b50611587565b5060ff8160381c16156114c3565b508060f81c156114bc565b6115c061ffff6107e05160401c166154fc565b610600525f5b61ffff6107e05160401c1661ffff821610156116a1576004355f9081526002602090815260408083206003835281842061ffff868116808752918552838620546001600160a01b03168652919093529220610620519293600193909261162b91614ef2565b511561164c5750600a61164384831661060051614ef2565b525b01166115c6565b61165b84831661086051614ef2565b511561168e5760ff600261167492015460201c1661577f565b60ff61168585841661060051614ef2565b91169052611645565b60ff600261167492015460201c1661575d565b5f610780525b61ffff6107e05160401c1661ffff6107805116101561199f576004355f908152600260208181526040808420600383528185206107805161ffff1686528352818520546001600160a01b03168552909152909120015461084081905260281c60ff1660221480159061198e575b61198957610640516040516107a081905261172f9190614dcc565b610640516107a0513690375f6108205260015b600460ff8216116117a6578060ff61176d61ffff61176261177795615ad1565b610840511616615624565b1661177c576153cc565b611742565b61082051611789816153cc565b610820526117a060ff80841692166107a05161552e565b526153cc565b5060ff6108205116156119895760ff6117ff816117f5604051602081016117e6826117d8610780516109805185615562565b03601f198101845283614dcc565b83610820511691519020615580565b166107a05161552e565b5116610660525f610760525f610740525b61ffff610740511661ffff6107e05160401c16811015611929578061ffff61078051161461191c576004355f908152600260208181526040808420600383528185208686528352818520546001600160a01b03168552909152909120015460f081901c60ff161561192257602760ff8260281c16146119225761ffff6118998361090051615551565b5116156119225760ff6118be61ffff6002936118b761066051615ad1565b1616615624565b161061191c576119008161ffff6118d95f9461090051615551565b516118e661066051615ad1565b1916166118f68261090051615551565b526108c051615551565b526001610760525b61ffff600161074051011661074052611810565b50611908565b5050611908565b506107605115611948575b61ffff6001610780510116610780526116a7565b61196b6106605161ffff61196481610780511661090051615551565b51166157a1565b61ffff61198081610780511661090051615551565b91169052611934565b611934565b5060ff6108405160f01c1615611714565b5f6106e0525b61ffff6107e05160401c1661ffff6106e051161015611d43576004355f908152600260208181526040808420600383528185206106e05161ffff1686528352818520546001600160a01b031685529091529091200154602719602882901c60ff1601611ce6575f6105c05260501c6001600160a01b03168015611d1e57611a399061ffff6107e05160401c166004356157fe565b6105c0525b61ffff806105c0511614611cfb576004355f908152600260208181526040808420600383528185206105c05161ffff1686528352818520546001600160a01b03168552909152909120015460281c60ff16602714611cfb5761ffff611aab816105c0511661090051615551565b5116158015611d00575b611cfb5760ff6105a0525f6105e0525f5b601060ff82161015611b4757600160ff9161ffff611aec816105c0511661090051615551565b51838584161b1616151580611b28575b611b08575b0116611ac6565b82611b188183166109a051614f1a565b51166105e052806105a052611b01565b5082611b398183166109a051614f1a565b5116836105e0511610611afc565b5060ff6105205261052051610540525f5b601060ff82161015611bd957600160ff9161ffff611b7e816106e0511661090051615551565b51838584161b1616151580611bba575b611b9a575b0116611b58565b82611baa8183166109a051614f1a565b5116610540528061052052611b93565b5082611bcb8183166109a051614f1a565b511683610540511611611b8e565b5060ff6105a0511660ff81148015611cec575b611ce65760ff610540511660ff6105e051161115611ce657600161ffff911b1661ffff8119611c23826105c0511661090051615551565b511616611c3a61ffff6105c0511661090051615551565b5261ffff80600160ff61052051161b1681611c5d816105c0511661090051615551565b511681611c72846105c0511661090051615551565b9117905219611c89826106e0511661090051615551565b511616611ca061ffff6106e0511661090051615551565b5261ffff611cb6816106e0511661090051615551565b511690611ccd61ffff6106e0511661090051615551565b911790525b61ffff60016106e05101166106e0526119a5565b50611cd2565b5060ff80610520511614611bec565b611cd2565b5061ffff611d16816106e0511661090051615551565b511615611ab5565b50611d3a6109805161ffff6107e05160401c166106e05161566c565b6105c052611a3e565b611d69611d5961ffff6107e05160401c16614edb565b6040516108005261080051614dcc565b61ffff6107e05160401c166108005152601f19611d8f61ffff6107e05160401c16614edb565b01366020610800510137611dac61ffff6107e05160401c166154fc565b6106c0525f6107c0525b61ffff6107e05160401c1661ffff6107c0511610156121aa576004355f908152600260208181526040808420600383528185206107c05161ffff1686528352818520546001600160a01b0316855290915290912001546106a081905260281c60ff1660261480159061219c575b612197575f5f610680525b61ffff6107e05160401c1661ffff61068051161015611f8d5761ffff610680511661ffff6107c0511614611f74576004355f908152600260208181526040808420600383528185206106805161ffff1686528352818520546001600160a01b03168552909152909120015460f881901c158015611f7f575b611f795760ff6106a05160201c1660ff8260201c1603611f795760281c60ff16602714611f7457600160ff611ef061ffff611ee981610680511661090051615551565b5116615624565b1611611f7457505f611f0c61ffff610680511661090051615551565b525f611f2261ffff61068051166108c051615551565b52611f4360ff611f3c61ffff6107c051166106c051614ef2565b51166153cc565b60ff611f5961ffff6107c051166106c051614ef2565b9116905260015b61ffff600161068051011661068052611e2e565b611f60565b50611f60565b5060ff8160f01c1615611ea6565b612053575b61ffff611fa7816107c0511661090051615551565b5116196106a05160101c16610560525f5b60ff8116601081101561203c5760ff918161ffff80600180951b61056051161616611fe6575b500116611fb8565b83611ff7612019926109a051614f1a565b511663ffffffff61201261ffff6107c0511661080051614ef2565b511661559e565b63ffffffff61203261ffff6107c0511661080051614ef2565b9116905283611fde565b50505b61ffff60016107c05101166107c052611db6565b5f5b61ffff6107e05160401c1661ffff821610156121915760018161ffff809316836107c0511614612178576004355f90815260026020818152604080842060038352818520868916865283528185205460a088901b889003168552909152909120015460f881901c158015612183575b61217d5760ff6106a05160201c1660ff8260201c160361217d5760281c60ff1660271461217857826120fb81831661090051615551565b51161561217857600260ff61211985611ee981861661090051615551565b1611612178575f61212f84831661090051615551565b525f6121408483166108c051615551565b5261215860ff611f3c856107c051166106c051614ef2565b60ff61216c856107c051166106c051614ef2565b911690525b0116612055565b612171565b50612171565b5060ff8160f01c16156120c4565b50611f92565b61203f565b506106a05160f81c15611e23565b5f610700525b61ffff6107e05160401c1661ffff610700511610156123b3576004355f908152600260208181526040808420600383528185206107005161ffff1686528352818520546001600160a01b031685529091529091200154602c19602882901c60ff16016123ad5761ffff811661222f61ffff610700511661090051615551565b528060f81c908161238c575b5061225061ffff61070051166108c051615551565b90151590525b600260ff61227261ffff611ee981610700511661090051615551565b1611156123875760ff6105805261058051610500525f6104e0525b601060ff6104e0511610156123295761ffff6122b181610700511661090051615551565b51600160ff6104e051161b1616151580612305575b6122de575b60ff60016104e05101166104e05261228d565b60ff6122f2816104e051166109a051614f1a565b5116610500526104e051610580526122cb565b5060ff61231a816104e051166109a051614f1a565b511660ff6105005116116122c6565b60ff610580511660ff81146123715761ffff600181921b161961235482610700511661090051615551565b51161661236b61ffff610700511661090051615551565b52612256565b505b61ffff6001610700510116610700526121b0565b612373565b600191506123a460ff809260201c166109c05161552e565b5116148161223b565b50612373565b5f6104c0525b61ffff6107e05160401c1661ffff6104c051161015612539576004355f908152600260208181526040808420600383528185206104c05161ffff1686528352818520546001600160a01b031685529091529091200154602b1960289190911c60ff1601612534575b600260ff61243d61ffff611ee9816104c0511661090051615551565b1611156125345760ff6104a0526104a051610480525f5b601060ff821610156124d557600160ff9161ffff61247a816104c0511661090051615551565b51838584161b16161515806124b6575b612496575b0116612454565b826124a68183166109a051614f1a565b511661048052806104a05261248f565b50826124c78183166109a051614f1a565b51168361048051161161248a565b5060ff6104a0511660ff811461251e5761ffff600181921b1619612501826104c0511661090051615551565b51161661251861ffff6104c0511661090051615551565b52612421565b505b61ffff60016104c05101166104c0526123b9565b612520565b5f610440525b61ffff6107e05160401c1661ffff6104405116101561382b576004355f8181526003602090815260408083206104405161ffff1684528252808320546001600160a01b0316610400819052938352600280835281842094845293909152902060e0819052015460f081901c60ff16156138255760281c60ff16600914613653576125d361ffff610440511661090051615551565b516103a0526125ec61ffff61044051166108c051615551565b51151561038052600260e05101546103605260ff6103605160281c1661042052610420516102c05261262861ffff610440511661046051614ef2565b51151580613624575b61361a575b5f610320525f5b601060ff821610156126905760018161ffff8260ff8095161b6103a05116161561268b5761267f836126748184166109a051614f1a565b51166103205161559e565b610320525b011661263d565b612684565b5060276102c051036134ff575b601760ff610420511614806134f3575b806134d2575b613490575b601b60ff6104205116148061347a575b613438575b601d60ff610420511614613352575b5f610280525f6102a052610380515f1461332f5760ff61270661ffff610440511661060051614ef2565b5116602a6102c05114613261575b602c60ff6104205116148061324e575b80613232575b80613216575b61320e575b60ff1663ffffffff61032051160263ffffffff811690810361058f5761277c63ffffffff9161277660ff612770816103605160201c16615a71565b16615609565b9061559e565b1661028052610280516102a0525b600760ff61042051161480613204575b806131dc575b6131be575b600860ff610420511614806131b4575b806131aa575b613188575b6127db61ffff806103605160101c1619610360511616615624565b600160ff6104205116148061317a575b613162575b600260ff61042051161480613155575b613140575b600360ff6104205116149081613133575b50612fef575b600460ff610420511614612f37575b600560ff61042051161480612f17575b612f02575b601960ff61042051161480612ef0575b612e63575b60266102c0511480612e43575b612ddd575b602d60ff610420511614612aeb575b601a60ff610420511614612972575b600360e0510160018060401b03610280511660018060401b031982541617905561ffff6128ba81610440511661090051615551565b516102a0516102805192909116916001600160401b039182169116818103915f13801582841316918312161761058f5760405191825261ffff806103605160101c1619610360511616602083015261ffff6103205116604083015261ffff6102a051166107205183015260030b6106405182015260ff610420511660a08201526103805160c082015261040051905f516020615b185f395f51905f5260e060043592a35b61ffff60016104405101166104405261253f565b5f610180525f610160525b61ffff6107e05160401c1661ffff61016051161015612ab95761ffff610160511661ffff610440511614612ab4576004355f908152600260208181526040808420600383528185206101605161ffff1686528352818520546001600160a01b03168552909152909120015460f081901c60ff1615612aae5761ffff612a0a81610160511661090051615551565b5116199060101c1660c0525f6080525b601060ff608051161015612a9a5761ffff80600160ff608051161b60c051161616151580612a77575b612a59575b60ff60016080510116608052612a1a565b60ff612a6c81608051166109a051614f1a565b511661018052612a48565b5060ff612a8b81608051166109a051614f1a565b511660ff610180511610612a43565b61ffff60016101605101166101605261297d565b50612a9a565b612a9a565b60ff610180511680612acc575b50612885565b612ad8612ae1916155ee565b61028051614d97565b6102805280612ac6565b5f610140525f6101e0525f6101c0525f6101a0525b61ffff6107e05160401c1661ffff6101a051161015612c605761ffff6101a0511661ffff610440511614612c55576004355f908152600260208181526040808420600383528185206101a05161ffff1686528352818520546001600160a01b03168552909152909120015460f081901c60ff1615612c5a57612b8c61ffff610440511661090051615551565b51166101205260ff612ba461ffff6101205116615624565b16610100526101005115612c5557612bbe610140516153cc565b610140525f60a0525b601060ff60a051161015612c295761ffff80600160ff60a051161b61012051161616612bff575b60ff600160a051011660a052612bc7565b612c2060ff612c158160a051166109a051614f1a565b51166101c05161559e565b6101c052612bee565b6002610100511015612c4a575b61ffff60016101a05101166101a052612b00565b60016101e052612c36565b612c36565b50612c36565b6101405160ff16612c8b575f612c8061ffff610440511661090051615551565b525f61028052612876565b6101e05160ff16600103612da2575f5b61ffff6107e05160401c1661ffff82161015612d6e5760018161ffff80931683610440511614612d69576004355f90815260026020818152604080842060038352818520868916865283528185205460a088901b889003168552909152909120015460f081901c60ff1615612d635760ff612d2d85600293612d2582610440511661090051615551565b511616615624565b161015612d3c575b0116612c9b565b5f612d4c84831661090051615551565b525f612d5d8483166108c051615551565b52612d35565b50612d35565b612d35565b50600a63ffffffff6101c051160260018060401b03811690810361058f57612d999061028051614d97565b61028052612876565b600260ff610140511610155f14612dc857612d99612ad863ffffffff6101c051166155ee565b612d99612ad863ffffffff6101c051166155ee565b612e31612e06612ad863ffffffff612dff61ffff610440511661080051614ef2565b51166155ee565b600160ff612e1e61ffff61044051166106c051614ef2565b511603612e3a5760ff60325b1690614d97565b61028052612867565b60ff6096612e2a565b5060ff612e5a61ffff61044051166106c051614ef2565b51161515612862565b60ff612e8481612e7a816103605160401c1661553f565b166109a051614f1a565b5116600160ff612ea261ffff611ee981610440511661090051615551565b161115612eb0575b50612855565b600a811115612ee457600f0260018060401b03811690810361058f57612ed99061028051614d97565b610280525b80612eaa565b50603261028052612ede565b5060ff6103605160401c161515612850565b612f0e61028051614d7f565b61028052612840565b50600160ff612f2f61ffff6103605160101c16615624565b16111561283b565b5f610240525f610220525b601060ff61022051161015612fd45761ffff80600160ff61022051161b816103605160101c16196103605116161616151580612fb0575b612f91575b60ff600161022051011661022052612f42565b60ff612fa58161022051166109a051614f1a565b511661024052612f7e565b5060ff612fc58161022051166109a051614f1a565b511660ff610240511610612f79565b612fe6612ad860ff61024051166155ee565b6102805261282b565b5f610260525f610200525b601060ff6102005116101561310657600160ff61020051161b61ffff8082816103605160101c1619610360511616161615613100575f905f5b61ffff6107e05160401c1661ffff82161061307a57505060ff610260511660ff821611613070575b505b60ff600161020051011661020052612ffa565b610260528061305b565b6004355f9081526002602081815260408084206003835281852061ffff871686528352818520546001600160a01b03168552909152909120015460f081901c60ff16908390826130f0575b50506130d8575b60010161ffff16613033565b9160016130e761ffff926153cc565b939150506130cc565b61ffff92501616151582856130c5565b5061305d565b60ff6102605116600281101561311d575b5061281c565b612ad8613129916155d3565b6102805280613117565b60ff915016151581612816565b61314c61028051614d7f565b61028052612805565b50600160ff821614612800565b613171612ad860ff83166155d3565b610280526127f0565b50600360ff821610156127eb565b610280516001600160401b0390811660960190811161058f57610280526127c0565b506108a0516127bb565b50610380516127b5565b6131d3612ad863ffffffff61032051166155b8565b610280526127a5565b5060ff6103605160201c16600181149081156131f9575b506127a0565b6003915014816131f3565b506103805161279a565b506023612735565b5061322b61ffff610440511661086051614ef2565b5115612730565b5061324761ffff610440511661062051614ef2565b511561272a565b50600160ff6103605160201c1614612724565b6103605160501c6001600160a01b0316801561330e5761328e9061ffff6107e05160401c166004356157fe565b61ffff8082161415806132c4575b6132a7575b50612714565b60ff915061ffff6132bc911661060051614ef2565b5116816132a1565b506004355f9081526002602081815260408084206003835281852061ffff871686528352818520546001600160a01b03168552909152909120015460281c60ff166027141561329c565b5061332a6109805161ffff6107e05160401c166104405161566c565b61328e565b63ffffffff61334061032051615609565b1661028052610280516102a05261278a565b5f610340525f610300525f6102e0525b601060ff6102e0511610156133fc57600a60ff613387816102e051166109a051614f1a565b5116146133a2575b60ff60016102e05101166102e052613362565b61ffff600160ff6102e051161b6103605116166133e7575b61ffff600160ff6102e051161b6103a05116161561338f576133de610300516153cc565b6103005261338f565b6133f3610340516153cc565b610340526133ba565b600360ff6103405116106126dc57600560ff61030051160263ffffffff811690810361058f5761342f906103205161559e565b610320526126dc565b6103fc61344b61ffff6103a05116615624565b60021b166403fffffffc63fffffffc82169116810361058f57613471906103205161559e565b610320526126cd565b5061348b61ffff610360511661595d565b6126c8565b6101fe6134a361ffff6103a05116615624565b60011b166401fffffffe63fffffffe82169116810361058f576134c9906103205161559e565b610320526126b8565b506004355f19810190811161058f57610400516134ee9161585e565b6126b3565b506001600435116126ad565b5f5b61ffff811661ffff6107e05160401c168110156136135761ffff610440511681146135f9576004355f90815260026020818152604080842060038352818520958552948252808420546001600160a01b031684529390529190200154602881901c60ff16602114801590613605575b6135f957600160ff6135898161ffff9460401c1661553f565b161b610360511616156135eb5750600360ff6135ab61ffff6103a05116615624565b160263ffffffff811690810361058f576103205163ffffffff16818111156135e3570363ffffffff811161058f575b6103205261269d565b50505f6135da565b600161ffff915b0116613501565b50600161ffff916135f2565b5060ff8160401c1615613570565b505061269d565b5f61042052612636565b50600761042051101580613645575b806126315750602c6104205114612631565b50600d610420511115613633565b61ffff61366881610440511661090051615551565b51166136f55760e05160030180546001600160401b0319169055610440516109005161ffff9161369b9190831690615551565b511661ffff600260e05101541660405191825260208201525f60408201525f610720518201525f61064051820152600960a08201525f60c082015261040051905f516020615b185f395f51905f5260e060043592a361295e565b5f6103c0525f5b601060ff8216101561381f5761ffff61371d81610440511661090051615551565b51600160ff84161b16166137365760010160ff166136fc565b6103c0525b60ff6103c0511661375b60ff613754836109a051614f1a565b51166155b8565b6001600160401b0390811660140290811690810361058f57600360e0510190600a60018060401b0391041660018060401b0319825416178155600360ff6137bc61ffff6137b081610440511661090051615551565b5116946109a051614f1a565b5116029060ff821691820361058f5761ffff905416906040519283525f60208401526040830152610720518201525f61064051820152600960a0820152600160c082015261040051905f516020615b185f395f51905f5260e060043592a361295e565b5061373b565b5061295e565b61ffff60026103e051015460401c166107205150604051906138506107205183614dcc565b6107205136833761072051604051919061386a9083614dcc565b610720513683375f905b8061ffff8316106139265750506103e051600201805460ff60501b1916600160521b179055604051915f835b60038210613906575050506107205182015f905b600382106138e6576004357f5dee73a0a35b6c3cb0a087b18a6dbe229e6b62804e89b8650aacaf3411ce62bd60c086a2005b82516001600160401b0316815260209283019260019290920191016138b4565b82516001600160a01b0316815260209283019260019290920191016138a0565b9092916004355f52600360205260405f2061ffff85165f5260205260405f2060018060a01b03905416926004355f52600260205260405f2060018060a01b0385165f5260205260405f2060ff600282015460f01c165f14613a8d57600301546001600160401b0316925b5f5b60ff81166003811015613a7a576001600160401b036139b18287615551565b516001600160401b038816911681116139d157505060010160ff16613992565b92915095969293945060025b60ff811687811115613a4e5760ff91906001600160a01b03613a0984613a028561553f565b1689615551565b5116613a158289615551565b52613a3e6001600160401b03613a3585613a2e8661553f565b168b615551565b51169189615551565b5216801561058f575f19016139dd565b5050939490613a706001939261ffff9598613a69828b615551565b5287615551565b525b011690613874565b505092509361ffff919350600190613a72565b505f92613990565b60ff60606109c051015116156108a0526111c3565b5060ff60406109c051015116156111b8565b6004355f9081526002602081815260408084206003835281852061ffff8781168752908452828620546001600160a01b0316865292529092200154909160019160f881901c613b0e575b500116611190565b60ff9060201c1660ff613b35613b2b82611f3c856109c05161552e565b926109c05161552e565b9116905283613b06565b5f5b61ffff811661ffff6107e05160401c16811015613bc1576004355f908152600260208181526040808420600383528185208686528352818520546001600160a01b03168552909152909120015461ffff92600192909160281c60ff16602714613bbb57613bb2839161046051614ef2565b525b0116613b41565b50613bb4565b5050611168565b6004355f9081526002602081815260408084206003835281852061ffff871686528352818520546001600160a01b03168552909152909120015460151960289190911c60ff1601613c1d575050600181611162565b60010161ffff1661114c565b6004355f9081526002602081815260408084206003835281852061ffff8781168752908452828620546001600160a01b03168652925290922001549091600191602419602882901c60ff1601613d09575f9060501c60a084901b849003168015613d4d575f905f5b866107e05160401c1687821610613d0f575b505015613d09575b6004355f90815260026020818152604080842060038352818520868a16865283528185205460a089901b899003168552909152909120015460281c60ff16602714613d0957613d008484921661062051614ef2565b525b011661111d565b50613d02565b6004355f52600360205260405f208782165f526020528160405f20878060a01b0390541614613d415785018616613c91565b92505050828580613ca3565b5050613d6561098051846107e05160401c168361566c565b613cab565b630c30209d60e31b5f5260045ffd5b63060b6c7960e41b5f5260045ffd5b346103f45760203660031901126103f4576004355f52600160205261010060405f20613e24815491600260018201549101549060405193845260018060401b038116602085015260018060401b038160401c16604085015260018060401b038160801c16606085015260c01c608084015260018060401b03811660a084015261ffff8160401c1660c084015260ff60e084019160501c16614d42565bf35b346103f4575f3660031901126103f457602060405160268152f35b346103f45760203660031901126103f457600435805f52600160205260405f2060028101805460ff8160501c1660058110156103e0576103d157600183015460801c6001600160401b0316431115613ef15761ffff60029160401c1610613ee257805460ff60501b1916600160501b179055546040519081527f0e4470a76b21ceee80e273f7ad6295d8742cd0db8384f17cb69bc515b89ca60e90602090a2005b63f770074360e01b5f5260045ffd5b63104097c960e11b5f5260045ffd5b346103f45760203660031901126103f4576004355f52600160205261010060405f20600281015461ffff600183015492549160405193613f468560ff8460501c16614d42565b6001600160401b038181166020870152604082811c821687820152608083811c8316606089015260c093841c9088015290831660a08701529190911c919091169083015260e0820152f35b614d27565b346103f45760603660031901126103f457600435613fb2614d01565b815f52600160205260405f209060018201549160018060401b038316156103d1576002019182549060ff8260501c1660058110156103e0576103d15760401c6001600160401b031643116103c25761ffff60039160401c16101561425d575f83815260026020908152604080832033845290915290205461424e57826040519161403b83614db0565b602435835260208301925f845260408101915f835260608201905f825260808301905f825260a084019060ff16815260c084015f815260e085015f81526101008601915f83526101208701935f85526101408801955f87526101608901975f89526101808a01995f8b526101a081019c5f8e525f52600260205260405f20600160a01b6001900333165f5260205260405f209d8e9151825551906001015560028d019a5161ffff1661ffff1661ffff198c5416178b555161ffff16614100908b614e43565b5160ff1661410e908a614e5d565b518854915161ffff60281b1990921660289190911b60ff60281b161760309190911b60ff60301b16178755516141479060ff1687614e7a565b5160ff166141559086614e97565b5184549151925160509390931b600160501b600160f01b031660489190911b60ff60481b16600160481b600160f81b0319909216919091171790151560f01b60ff60f01b161782555181546001600160f81b031690151560f81b6001600160f81b03191617905551600391820180546001600160401b0319166001600160401b03929092169190911790555f83815260209182526040808220845461ffff90831c8116845293529081902080546001600160a01b03191633179055825461422693911c821660010190911690614e12565b33907f452c97fab23345463f6fbb454d3bf4f408941c88abe2e79586032f5c8f9711fb5f80a3005b6317fd8aab60e31b5f5260045ffd5b6394d0eef960e01b5f5260045ffd5b346103f45760403660031901126103f457600435614288614cf1565b5f91825260016020908152604080842060028084528286203387529093529320908301549192909160501c60ff1660058110156103e0576103d1576001015460401c6001600160401b031643116103c2578054156103b357600201601860ff825460281c16036103a457600f60ff8316116103955761038d61039392614e31565b346103f4575f3660031901126103f457602060405160018152f35b346103f4575f3660031901126103f4576020604051602a8152f35b346103f45760203660031901126103f457600435805f526001602052600260405f200160ff815460501c1660058110156103e0576103d1575f828152600260209081526040808320338452909152902054156143bb57805460ff60501b1916600160521b17905533905f516020615af85f395f51905f525f80a3005b63721c7c6760e11b5f5260045ffd5b346103f4575f3660031901126103f457602060405160218152f35b346103f4575f3660031901126103f457602060405160178152f35b346103f45760403660031901126103f457602061077a61441e614d11565b600435614f2b565b346103f4575f3660031901126103f4576040517f00000000000000000000000000000000000000000000000000000000000000006001600160a01b03168152602090f35b614ca0565b346103f45760203660031901126103f457600435805f52600160205261ffff600260405f20015460401c16906144a482614edb565b916144b26040519384614dcc565b8083526144be81614edb565b602084019290601f19013684375f5b61ffff8116838110156145125761ffff91600191845f52600360205260405f20815f5260205261450a60405f20848060a01b039054169189614ef2565b5201166144cd565b8486604051918291602083019060208452518091526040830191905f5b81811061453d575050500390f35b82516001600160a01b031684528594506020938401939092019160010161452f565b614cd6565b346103f4575f3660031901126103f4576020604051602c8152f35b346103f4575f3660031901126103f457602060405160168152f35b346103f4575f3660031901126103f457602060405160078152f35b346103f4575f3660031901126103f457602060405160058152f35b346103f45760403660031901126103f4576004355f818152600160209081526040808320600280845282852033865290935292209082015490919060501c60ff1660058110156103e057600203610e45576001015460c01c431161467a578054156103b357600101805461466b57602435905533907f2e9cfb0db489e2f1911bdf08eb7c0ef51002a6ffe1ddca46174c4f71909a746e5f80a3005b6323004ef160e01b5f5260045ffd5b6341655b4360e11b5f5260045ffd5b346103f45760403660031901126103f4576146a2614d11565b6004355f52600260205260405f209060018060a01b03165f5260205261010060405f2060ff8154151591600281015490600360018060401b0391015416604051938452828260f01c16151560208501528160f81c15156040850152828260201c166060850152828260281c16608085015261ffff8260101c1660a085015260c084015260301c1660e0820152f35b346103f45760403660031901126103f457602061475661474e614d11565b600435614eb4565b6040519015158152f35b346103f45760403660031901126103f45760043561477c614cf1565b815f52600160205260405f209060018201549160018060401b038316156103d1576002019182549060ff8260501c1660058110156103e0576103d15760401c6001600160401b031643116103c25761ffff60039160401c16101561425d575f83815260026020908152604080832033845290915290205461424e5760ff811690600f82116103955761480e8491614e31565b9160405161481b81614db0565b5f19815260208101935f855260408201926001901b61ffff16835260608201905f825260808301905f825260a08401906009825260c085015f815260e08601905f825261010087019260ff1683526101208701935f85526101408801955f8752610160890197600189526101808a01995f8b526101a081019c5f8e525f52600260205260405f20600160a01b6001900333165f5260205260405f209d8e9151825551906001015560028d019a5161ffff1661ffff1661ffff198c5416178b555161ffff16614100908b614e43565b346103f45760203660031901126103f457600435805f52600160205260405f2090600282019182549060ff8260501c1660058110156103e0576103d1576001015460401c6001600160401b03164311156149745761ffff60029160401c161015613ee257815460ff60501b1916600160521b179091555f905f516020615af85f395f51905f528280a3005b622900a960e01b5f5260045ffd5b346103f4575f3660031901126103f457602060405160228152f35b346103f4575f3660031901126103f4576020604051602d8152f35b346103f4575f3660031901126103f4575f545f19811461058f576001015f819055436001600160401b0316906149ed82614d4f565b6149f681614d67565b5f1943019143831161058f576040519261010084016001600160401b03811185821017614b685760409081529040845260208085018781526001600160401b03938416868401818152958516606088019081525f6080808a0182815260a08b0183815260c08c0184815260e08d018581528e86526001998a9052948a90209c518d559651978c0180549b5195516001600160c01b0319909c16988b16989098179490981b600160401b600160801b03169390931798901b600160801b600160c01b0316979097178455519096939594614b079461ffff946002939192614add921690614def565b9551950180546001600160401b0319166001600160401b0396909616959095178555511683614e12565b5160058110156103e057815460ff60501b191660509190911b60ff60501b1617905560408051938452602084810192909252909282917f68e7b09ec44e876e76ff05157850e3261aa63a8680fe21a2ba93dcbb2b09f58f91a2604051908152f35b634e487b7160e01b5f52604160045260245ffd5b346103f4575f3660031901126103f457602060405160278152f35b346103f4575f3660031901126103f457602060405160088152f35b346103f4575f3660031901126103f4576020604051601a8152f35b346103f4575f3660031901126103f457602060405160fa8152f35b346103f45760203660031901126103f4576004355f815f52600160205261ffff600260405f20015460401c165f5f905b8261ffff831610614c325760208461ffff60405191168152f35b5f8581526002602081815260408084206003835281852061ffff881686528352818520546001600160a01b0316855290915290912001549360f085901c60ff1615614c92578161ffff60019281888196161617961617925b011690614c18565b935090600161ffff91614c8a565b346103f4575f3660031901126103f457602060405160048152f35b346103f4575f3660031901126103f4576020604051601e8152f35b346103f4575f3660031901126103f457602060405160038152f35b6024359060ff821682036103f457565b6044359060ff821682036103f457565b602435906001600160a01b03821682036103f457565b346103f4575f3660031901126103f457602060405160028152f35b9060058210156103e05752565b6001600160401b03908116601e019190821161058f57565b6001600160401b039081166001019190821161058f57565b6001600160401b039081166064019190821161058f57565b6001600160401b03918216908216019190821161058f57565b6101c081019081106001600160401b03821117614b6857604052565b601f909101601f19168101906001600160401b03821190821017614b6857604052565b80546001600160c01b031660c09290921b6001600160c01b031916919091179055565b805461ffff60401b191660409290921b61ffff60401b16919091179055565b60ff60019116019060ff821161058f57565b9063ffff000082549160101b169063ffff00001916179055565b805460ff60201b191660209290921b60ff60201b16919091179055565b805460ff60381b191660389290921b60ff60381b16919091179055565b805460ff60401b191660409290921b60ff60401b16919091179055565b906001821115614ed5575f19820191821161058f57614ed291615299565b90565b50505f90565b6001600160401b038111614b685760051b60200190565b8051821015614f065760209160051b010190565b634e487b7160e01b5f52603260045260245ffd5b906010811015614f065760051b0190565b90815f52600260205260405f209060018060a01b03165f52602052600260405f20015460ff8160f01c1615614ff05760101c9061ffff821615614ff0575f526001602052614f7c60405f20546153dd565b60ff915f905f5b60ff81166010811015614fe85761ffff6001821b841616151580614fcf575b614fb3575b5060010160ff16614f83565b614fc491955060ff92935084614f1a565b511690836001614fa7565b5060ff614fdc8287614f1a565b511660ff851610614fa2565b505050505090565b505060ff90565b909160219260ff60f81b9060f81b16825260018201520190565b6001600160a01b03909116903382141580615223575b6105b257805f52600160205260405f20815f52600260205260405f20835f5260205260405f209060ff600282015460501c1660058110156103e057600103610c2e576001808060401b0391015460801c16601e810180911161058f5743116152145780549081156103b35760020190815460ff8160f01c166151f0575060408051637ae4eb4f60e11b8152906044600483013760845f604483015b600282106151da57505050604061010460c48301376040610144610104830137602081610144817f00000000000000000000000000000000000000000000000000000000000000006001600160a01b03165afa9081156151cf575f91615194575b501561518557610144350361517657805461ffff60ff60f01b0119166101643561ffff1617600160f01b1790557f6e9dac3f3f833c1d527aa989d3a673884ddc11e31fdccc11ccd8aebf1ae069ac5f80a3565b635746ff1160e01b5f5260045ffd5b6303b2487b60e11b5f5260045ffd5b90506020813d6020116151c7575b816151af60209383614dcc565b810103126103f4575180151581036103f4575f615123565b3d91506151a2565b6040513d5f823e3d90fd5b60408082818660019537019301910190916150c2565b60281c60ff166009149350615212925050505763a89ac15160e01b5f5260045ffd5b565b6340d8392160e11b5f5260045ffd5b50337f00000000000000000000000000000000000000000000000000000000000000006001600160a01b03161415615027565b5f52600260205260405f209060018060a01b03165f52602052600260405f20015460ff8160f01c16156152935761ffff614ed29160101c16615624565b5060ff90565b919091805f526001602052600260405f20015460ff8160501c1660058110156103e0576004036153c55760401c61ffff1692600284106153c5575f8281526002602090815260408083206001600160a01b03851684529091529020600301546001600160401b03169182156153bd575f5b8561ffff82161061531f575060019450505050565b5f82815260036020908152604080832061ffff851684529091529020546001600160a01b0390811690841681146153b1575f8381526002602090815260408083206001600160a01b03909416835292905220600301546001600160401b0316801515908590826153a7575b505061539e57600161ffff915b011661530a565b505f9450505050565b109050845f61538a565b50600161ffff91615397565b505f93505050565b505f925050565b60ff1660ff811461058f5760010190565b90610200604051906153ef8183614dcc565b803683378193604051916154038184614dcc565b3683375f5b601060ff8216106154a65750505f5b60ff811660108110156154a05760ff91818361543560019487614f1a565b5116806154525750615449600a9187614f1a565b525b0116615417565b80840361546c5750615466600f9187614f1a565b5261544b565b60028103615481575061546660149187614f1a565b6003036154945761546660199187614f1a565b615466601e9187614f1a565b50505050565b607f8160011c166020811015614f065760ff9182846001931a838316155f146154f45760041c81165b16836154e96154e282611f3c858b614f1a565b9288614f1a565b911690520116615408565b600f166154cf565b9061550682614edb565b6155136040519182614dcc565b8281528092615524601f1991614edb565b0190602036910137565b906004811015614f065760051b0190565b60ff5f199116019060ff821161058f57565b906003811015614f065760051b0190565b90815260f09190911b6001600160f01b031916602082015260220190565b811561558a570690565b634e487b7160e01b5f52601260045260245ffd5b9063ffffffff8091169116019063ffffffff821161058f57565b6001600160401b039081166003029081169190820361058f57565b6001600160401b039081166032029081169190820361058f57565b6001600160401b039081166005029081169190820361058f57565b63ffffffff600a9116029063ffffffff821691820361058f57565b905f915f5b60ff8116601081101561566757600161ffff911b831616615650575b60010160ff16615629565b92600161565e60ff926153cc565b94915050615645565b505050565b919061ffff5f1991160161ffff811161058f576156ab61ffff92918380936040516156a0816104f28a602083019586615562565b519020911690615580565b1691168110156156b85790565b60010161ffff811161058f5790565b905f60ff925f5b60ff811660108110156157375761ffff6001821b8416161561572c5760ff6156f68287614f1a565b511660ff851610615710575b50600160ff915b01166156ce565b61572191955060ff92935084614f1a565b511690836001615702565b50600160ff91615709565b505092905060ff91501660ff8114615759579061ffff600181931b1619161690565b5090565b60ff16600181146157795760021461577457600c90565b600f90565b50601490565b60ff166001811461579b5760021461579657600a90565b600c90565b50600f90565b91906157ac90615ad1565b82169161ffff8316156157fa575f5b60ff811660108110156157f3576001901b61ffff818616166157e3575060010160ff166157bb565b61ffff9394508391501619161690565b5090925050565b9150565b929190925f5b61ffff851661ffff82161061581d575061ffff93505050565b5f82815260036020908152604080832061ffff851684529091529020546001600160a01b038481169116146158585760010161ffff16615804565b93505050565b919091805f526001602052600260405f2001549260ff8460501c1660058110156103e0576004036153c5575f8281526002602090815260408083206001600160a01b03851684529091529020600301546001600160401b03169182156153bd5761ffff5f9560401c16945b8561ffff8216106158de575060019450505050565b5f82815260036020908152604080832061ffff851684529091529020546001600160a01b039081169084168114615951575f8381526002602090815260408083206001600160a01b03909416835292905220600301546001600160401b0316841061539e57600161ffff915b01166158c9565b50600161ffff9161594a565b6040519161596c608084614dcc565b60803684375f5f5b60ff81166010811080615a64575b156159c357908161ffff60016159a1941b8716166159a6575b506153cc565b615974565b6159bc60ff6159b4866153cc565b95168861552e565b525f61599b565b5050600491925060ff1603615a5f575f915b60ff8316926004841015615a57576159ec81614e31565b935b60ff8516906004821015615a485760ff615a1581615a0c848861552e565b5116938661552e565b51165b60ff8116908115615a2d579260ff1606615a18565b5050949060ff60019116036153bd5760010160ff16936159ee565b505060010160ff1692506159d5565b506001925050565b5f9150565b50600460ff841610615982565b60ff1660018114615a8d57600214615a8857600590565b600790565b50600a90565b905f5b60ff81166010811015615acd576001901b61ffff81851616615abe575060010160ff16615a96565b61ffff92939150821619161690565b5050565b615ada9061553f565b60021b6103fc60fc82169116810361058f57600f61ffff911b169056fe0ca81214e3fd774c8a0e8a3bda90cbfea122c3036479025b62f3414ff91a78e02ef215a9bf85f347ff7eadb8c2272555a2da867518efc4b603b7e521d2c298206439e4c1ba3521ed4b1c9fd2774dd86a35f1a0ab78461e671b8ce0f8174c3838a26469706673582212208cd59f468ed0666c89880291ad9c51f66017e17c9a70edbc0a264335d4ab9df964736f6c634300081b0033","linkReferences":{}},"methodIdentifiers":{"BLOCKHASH_LIMIT()":"06314580","CHOICES_COUNT()":"494f13b3","COMMIT_WINDOW()":"e97f6a68","EYE_COMMIT_WINDOW()":"63560664","EYE_REVEAL_WINDOW()":"2ab4ee54","LOCK_OFFSET()":"8112b2a3","MAX_PLAYERS()":"4411b3eb","MIN_PLAYERS()":"85f07bbe","PERK_A1()":"4313c19b","PERK_A2()":"8723bebd","PERK_A3()":"31ec0b24","PERK_A4()":"0a483b6b","PERK_A5()":"4126473f","PERK_A6()":"c3e2b543","PERK_B1()":"42f2696f","PERK_B2()":"0a608be8","PERK_B3()":"e43b3132","PERK_B4()":"cc89f4e5","PERK_B8()":"4405e832","PERK_C1()":"a10c152a","PERK_C9()":"437517d3","PERK_D1()":"64295601","PERK_D2()":"de4ebfa3","PERK_D3()":"c758724f","PERK_D4()":"06fe54de","PERK_D5()":"2020dbed","PERK_E1()":"b82f58b9","PERK_E3()":"9dd5377e","PERK_F1()":"767221ed","PERK_F2()":"213c5419","PERK_F3()":"a13c8f4f","PERK_G1()":"ed03b5e8","PERK_G2()":"8b37b54a","PERK_G3()":"0ad73bd7","PERK_G4()":"a3f3fd69","PERK_G6()":"80cec2a0","REVEAL_WINDOW()":"17e931cf","cancelRound(uint256)":"7e07ab09","commit(uint256,uint256,uint8)":"868fdbea","commitB3(uint256,uint8)":"3488c913","commitments(uint256,address)":"e90d4c06","createRound()":"1b411fc8","currentRoundId()":"9cbe5efd","declareAllIn(uint256,uint8)":"f4f7c031","declareExtraPick(uint256,uint8)":"86887ffb","expireRound(uint256)":"292672ea","eyeCommit(uint256,bytes32)":"3e065847","eyeReveal(uint256,uint8,bytes32)":"c243ecb9","eyeRevealFor(uint256,address,uint8,bytes32)":"f1a4a48b","getNibbleMult(uint256)":"b6d40115","getOneSurvivingPick(uint256,address)":"57266915","getOverlappingNibbles(uint256)":"053d386c","getPlayerInfo(uint256,address)":"3ccd10e9","getPlayers(uint256)":"460e2049","getRoundInfo(uint256)":"88c3ffb0","getSurvivingCount(uint256,address)":"dd62bde4","lockEyeRound(uint256)":"c0095e24","lockRound(uint256)":"8ab4ca8a","openEyeGame(uint256)":"cd8c42a2","operator()":"570ca735","revealFor(uint256,address,uint256[2],uint256[2][2],uint256[2],uint256[2])":"dc560e75","revealVerifier()":"df080a35","rounds(uint256)":"8c65c81f","setTrap(uint256,uint8,uint8)":"9d980325","settle(uint256)":"8df82800","wasLastInPrevRound(uint256,address)":"3ac450b1"},"id":0}